:100000000C94A4000C94CC000C94CC000C94CC0068
:100010000C94CC000C94CC000C94CC000C94CC0030
:100020000C94CC000C94660E0C94CC000C94CC0078
:100030000C94CC000C94CC000C94CC000C94CC0010
:100040000C941C0E0C94CC000C94CC000C94CC00A2
:100050000C94CC000C94CC000C94CC000C94CC00F0
:100060000C94D80E0C94CC00000000002300260055
:1000700029002020202020505553482120202020D6
:10008000202000202020202020203120202020207F
:10009000202020002020202020202032202020206E
:1000A000202020200020202020202020332020205D
:1000B00020202020200057494E21005365636F6E99
:1000C0006420706C617965720057494E2100466961
:1000D00072737420706C61796572000000000024F6
:1000E0000027002A000000000800020100000304AD
:1000F000070000000000000000010204081020407A
:1001000080010204081020010204081020000000F1
:1001100000250028002B0004040404040404040245
:1001200002020202020303030303035365636F6EBB
:100130006420537472696E67004669727374205349
:100140007472696E6700F70F11241FBECFEFD8E0FD
:10015000DEBFCDBF11E0A0E0B1E0E8E2FDE202C009
:1001600005900D92AC33B107D9F722E0ACE3B1E0D2
:1001700001C01D92A433B207E1F710E0C4EAD0E059
:1001800004C02197FE010E949A14C33AD107C9F70F
:100190000E9417100C9492160C9400006F927F929C
:1001A0008F929F92AF92BF92CF92DF92EF92FF9287
:1001B0000F931F93CF93DF933B0126E0620E711CD8
:1001C000DB01ED91FD91BD01EC01C990D990CE010B
:1001D0008F010A5F1F4FA191B191E60129913991D9
:1001E0006E017D01DCE0ED0EF11C8D909D90AD90D7
:1001F000BD90E90189929992A992B9929E01EA165D
:10020000FB0699F7E017F10731F766157705C1F698
:10021000DF91CF911F910F91FF90EF90DF90CF90E2
:10022000BF90AF909F908F907F906F9008950895AA
:100230000895AF92BF92CF92DF92EF92FF920F9309
:100240001F93CF93DF936C017B018B01040F151F6C
:10025000EB015E01AE18BF08C017D10759F06991D4
:10026000D601ED91FC910190F081E02DC601099538
:10027000892B79F7C501DF91CF911F910F91FF90E5
:10028000EF90DF90CF90BF90AF900895833081F0D2
:1002900028F4813099F08230A9F008958730A9F0D0
:1002A0008830C9F08430B1F4809180008F7D03C024
:1002B000809180008F7780938000089584B58F7738
:1002C00084BD089584B58F7DFBCF8091B0008F777A
:1002D0008093B00008958091B0008F7DF9CF1F9377
:1002E000CF93DF93282F30E0F901EB51FF4F84913A
:1002F000F901E750FF4FD491F901E95EFE4FC49137
:10030000CC23A9F0162F81110E944601EC2FF0E0BA
:10031000EE0FFF1FE35FFE4FA591B4918FB7F894E6
:10032000EC91111108C0D095DE23DC938FBFDF91D3
:10033000CF911F910895DE2BF8CFCF93DF9390E0FC
:10034000FC01E750FF4F2491895E9E4FFC01849190
:100350008823C9F090E0880F991FFC01E552FF4FF8
:10036000A591B491FC01E35FFE4FC591D491611159
:100370000DC09FB7F8948C91209582238C9388812F
:10038000282328839FBFDF91CF910895623051F4D5
:100390009FB7F8943C91822F809583238C93E881BA
:1003A0002E2BEFCF8FB7F894EC912E2B2C938FBF81
:1003B000EACF8E3008F08E508770806480937C0086
:1003C00080917A00806480937A0080917A0086FD23
:1003D000FCCF809178009091790008953FB7F89410
:1003E0008091F4019091F501A091F601B091F7018F
:1003F00026B5A89B05C02F3F19F00196A11DB11D80
:100400003FBFBA2FA92F982F8827BC01CD01620FBB
:10041000711D811D911D42E0660F771F881F991F76
:100420004A95D1F708958F929F92AF92BF92CF9243
:10043000DF92EF92FF924B015C010E94EE016B0193
:100440007C010E94EE016C197D098E099F09683EAE
:10045000734081059105A8F321E0821A9108A10853
:10046000B10888EEC80E83E0D81EE11CF11C81148F
:100470009104A104B10429F7FF90EF90DF90CF9091
:10048000BF90AF909F908F9008958F929F92AF9260
:10049000BF92CF92DF92EF92FF92CF93DF93FC0156
:1004A0004A01AA24BB24C32ED42EE52EFF24DC2D22
:1004B000C22F8085982D882391F0C82FD0E0C89D49
:1004C000D001C99DB00DD89DB00D11249B2F8C9DDE
:1004D00060011124DD2D829F90011124C32FA68578
:1004E000218532858385A81321C0AB01440F551F98
:1004F000640F751F620F731FA385A60FB72FB11D61
:100500009C93A485A60FB72FB11DDC938585680F3A
:10051000711DFB01C083DF91CF91FF90EF90DF90C1
:10052000CF90BF90AF909F908F900895660F771FE8
:10053000660F771F620F731FA60FB72FB11D1C9296
:10054000DBCF2F923F924F925F926F927F928F926A
:100550009F92AF92BF92CF92DF92EF92FF920F9352
:100560001F93CF93DF9300D000D000D01F92CDB760
:10057000DEB76C014B01F12CE12C9701220F331FE8
:100580003A8329831E821D822D803E80220C331CDB
:10059000B12CA12C10E000E06D817E816170772785
:1005A0007C836B83D401ED91FC91E20DF31D0190EE
:1005B000F081E02DEA0DFB1D408051806280738048
:1005C000D6011296ED91FC9129813A81E20FF31F39
:1005D0000190F081E02DE20DF31D0190F081E02DFE
:1005E000EA0DFB1D4082518262827382D801A170A4
:1005F000BB276B817C81672B09F47FC0F801E095F4
:10060000F0957E2F71707F83F601848195816681DC
:100610007781089F9001099F300D189F300D11249C
:10062000269FA001279F500D369F500D1124AB2B04
:1006300009F467C09B01215031096D817E81261B21
:10064000370B289FB001299F700D389F700D112422
:10065000640F751FBF81BB2309F45DC0680F791F4C
:10066000615071096E197F09D601ED91FC91848169
:100670009581FC01228133816217730738F4A3014D
:1006800092012227552724290E9445020F5F1F4F00
:10069000F4E0AF0EB11C0330110509F083CF2D81BA
:1006A0003E812F5F3F4F3E832D832330310509F07C
:1006B0006BCF3FEFE31AF30A62E0860E911C73E002
:1006C000E716F10409F059CF27960FB6F894DEBF6C
:1006D0000FBECDBFDF91CF911F910F91FF90EF9093
:1006E000DF90CF90BF90AF909F908F907F906F9052
:1006F0005F904F903F902F900895802F81708F834F
:1007000083CFAD81BE81A89FB001A99F700DB89F16
:10071000700D11249DCF6E0D7F1DA6CF089585ED20
:100720008093BC008091BC0084FDFCCF1092FE0140
:10073000089520918601260F3327331F213231057A
:10074000ECF42091FE01FC0190E080E0243069F09F
:1007500082E00895A09186012191AC014A595E4F33
:10076000A40FB52FB11D2C930196861798F3809195
:100770008601680F6093860180E0089581E0089506
:100780000895E091020280910102E81730F4F0E050
:10079000EA5BFE4F808190E008958FEF9FEF089510
:1007A00090910202809101022FEF3FEF981748F4D9
:1007B000E92FF0E0EA5BFE4F208130E09F5F9093ED
:1007C0000202C90108958091010290910202891BE1
:1007D000990B0895CF92DF92EF92FF920F931F93A0
:1007E000CF93DF937C01CB018A012091CD0122239D
:1007F00089F0EB016B01C40ED51ECC15DD0569F047
:100800006991D701ED91FC910190F081E02DC70134
:100810000995F3CF642F0E949903C801DF91CF910E
:100820001F910F91FF90EF90DF90CF900895CF939D
:10083000DF931F92CDB7DEB769832091CD012223CC
:10084000F9F02091FF01203258F021E030E0FC0166
:100850003383228390E080E00F90DF91CF91089561
:1008600080910002E82FF0E0E253FE4F99819083DF
:100870008F5F809300028093FF0181E090E0ECCFD6
:1008800061E0CE0101960E949903F7CFCF93FC015E
:10089000C48121E02093CD01C093EE0110920002AB
:1008A0001092FF018385682B88E192E00E94170473
:1008B0009091FF01913208F03FC08091FE018111BB
:1008C000FCCF82E08093FE0181E08093FD018FEFF9
:1008D0008093CC011092CB019093CA01AEECB1E0B1
:1008E000EAEAF1E080E098132FC01092A90180910C
:1008F000A901CC0FC82BC093A9018091FC018130C4
:1009000039F51092FC018091A9018093BB00809180
:10091000BC0083FDF8CF85EC8093BC008091FE0184
:100920008230E1F38091CC018F3F31F08091CC0196
:10093000803211F08091CC01109200021092FF01E0
:100940001092CD01CF9108952D9121938F5FCBCF40
:1009500085EEE2CF90E080E008955F926F927F9203
:100960009F92AF92BF92CF92DF92EF92FF920F933E
:100970001F93CF93DF93EC015A0172E0972E960EEE
:100980002FEFB2E0BB0D3FEF55245A94511005C034
:10099000311103C0222309F455C0852D880F6A2C1C
:1009A000681A492D5B2F64E0762EC12CD12C76017C
:1009B000A1E082E0861508F43FC05330E8F54330EB
:1009C000D8F5E62DF0E0EE0FFF1FEC0FFD1F052F11
:1009D00010E0000F111F0190F081E02DE00FF11FDA
:1009E00084E0489F800111240190F081E02DE00F08
:1009F000F11F60817181828193816C157D058E0567
:100A00009F05B9F4C114D104E104F104A9F0AF5F6A
:100A1000A33091F4DF91CF911F910F91FF90EF9050
:100A2000DF90CF90BF90AF909F907F906F905F903E
:100A300008956B017C01A1E07A94650C530F420F7D
:100A40007110B7CF539482E05812A0CFB2503F5FDD
:100A5000323009F099CF9A949A942F5F223009F09E
:100A600090CF60E070E0CB01D5CF2F923F924F92B4
:100A70005F926F927F928F929F92AF92BF92CF922E
:100A8000DF92EF92FF920F931F93CF93DF9300D0EB
:100A900000D000D01F92CDB7DEB722242A94240EB6
:100AA000412C512C320109F485C03F832E83872EBF
:100AB000362E9D838C83F12CE12C10E0412C512C9F
:100AC000320124E00202C0011124DC01A25CBE4F0D
:100AD000BA83A98381E0801B8B835701AA0CBB1CBE
:100AE000C32CD82C912CD601ED91FD916D01EA0D0E
:100AF000FB1DAE81BF812C91B4E02B9F900111248E
:100B00000190F081E02D2E0F3F1FF901808191812E
:100B1000A281B381892B8A2B8B2B09F03FC0E981FD
:100B2000FA8180819181A281B381F90180839183CF
:100B3000A283B383AE81BF816C91492D5E2D832D3D
:100B4000982D0E94AD0420914201309143014091C3
:100B5000440150914501261737074807590709F006
:100B600044C0BFEF4B1A5B0A6B0A7B0A11E0F60127
:100B700032970190F081E02DEA0DFB1DAE81BF811F
:100B80002C91B4E02B9F9001112480819181820FE0
:100B9000931FFC0110821182128213829394F3E05E
:100BA0009F12A1CF2FEFE21AF20A33E0E316F1040D
:100BB00009F093CFC301B20127960FB6F894DEBFB8
:100BC0000FBECDBFDF91CF911F910F91FF90EF909E
:100BD000DF90CF90BF90AF909F908F907F906F905D
:100BE0005F904F903F902F90089520913E0130915B
:100BF0003F014091400150914101261737074807B6
:100C0000590739F4E1E04E1A5108610871081FEFE5
:100C1000AECF812F012E000C990BAA0BBB0B480EF7
:100C2000591E6A1E7B1E1111A2CF0B812E813F819E
:100C3000422D632D782D8C819D810E943505460EB5
:100C4000571E681E791E93CFCF93DF93FC01A181BD
:100C50008A2F880F990BA0913C01B0913D01A80FFC
:100C6000B91FC2818C2F880F990BCD91DC91C80FD1
:100C7000D91F838124E08202C0011124A881B98197
:100C8000A80FB91F4D915D916D917C91139780E0F4
:100C9000452B462B472B89F4E08184E0E802F001E4
:100CA0001124E25CFE4F40815181628173814D933A
:100CB0005D936D937C93139781E0DF91CF910895BD
:100CC000FF920F931F93CF93DF93EC010B81288149
:100CD00030E0F901EB51FF4F8491F901E750FF4FEC
:100CE000F490F901E95EFE4F14911123F9F081119E
:100CF0000E944601E12FF0E0EE0FFF1FE859FF4F81
:100D0000A591B491EC91FE2231E020E009F430E0AD
:100D1000832F922F21E08227817008130AC0198245
:100D2000DF91CF911F910F91FF90089590E080E0A7
:100D3000F1CF89818F5F89839A8189178CF38B81A9
:100D40008D8391E089278C838B83E9CF0F931F9349
:100D5000CF93DF93C0911602D091170288819981B9
:100D60000E9460068A819B810E94600610E000E07C
:100D7000E0911402F0911502E00FF11FC081D181C2
:100D800088810E94D90192509C838B8389810E9423
:100D9000D90192509E838D838F8198850E94600631
:100DA0000E5F1F4F0430110519F7DF91CF911F918E
:100DB0000F910895CF92DF92EF92FF920F931F93BE
:100DC000CF93DF93CDB7DEB729970FB6F894DEBF88
:100DD0000FBECDBFDC0114960D911C91F8018185E9
:100DE0009285892B09F465C00E94EE01D8011F96F7
:100DF000CD90DD90ED90FC9052976C197D098E0995
:100E00009F096C3271408105910570F3F894F801E7
:100E1000848195819A8389830184F285E02D7F0105
:100E20002FEFE21AF20A80818987D8019C915396AC
:100E3000ED91FC91549755968C91992309F448C0F3
:100E40009081982B98879081809589238F838F81BB
:100E50008C8388E08B8358856F8149853B812C8109
:100E600089819A81D701508347FD252F3A952083A8
:100E7000262F39F0441F00C000006083000000C02E
:100E8000F2CF38E04D9160830000019761F7D801FF
:100E90005496FC93EE93539749873B832C839A8314
:100EA000898378940E94EE01F8016787708B818BAB
:100EB000928B29960FB6F894DEBF0FBECDBFDF919F
:100EC000CF911F910F91FF90EF90DF90CF900895F9
:100ED0009081982B98879081809589238F838F812B
:100EE0008E8388E08D8358856F8149853D812E8171
:100EF00089819A81D701508347FD252F00C000C00A
:100F0000208300C000C000C000C000C0608300009B
:100F1000262F3A9541F0441F000000C000C000C0D9
:100F200000C000C0E8CF38E04D9100C0608300C031
:100F3000019709F7D8015496FC93EE93539749878C
:100F40003D832E83ACCFCF92DF92FF920F931F93FE
:100F5000CF93DF938C016C0183E0F82ED0E0C0E0EA
:100F6000D601ED91FC91EC0FFD1F808191810097DE
:100F700011F00E943C152296C630D10589F7F60182
:100F8000819191916F01009711F00E943C15FA94A4
:100F9000F110E4CF0115110551F0C801DF91CF9197
:100FA0001F910F91FF90DF90CF900C943C15DF9133
:100FB000CF911F910F91FF90DF90CF900895FC018A
:100FC000808191810C943C15CF92DF92EF92FF9239
:100FD0000F931F93CF93DF93EC017983688386E0AF
:100FE00090E00E94A0149B838A8310E000E0EA80D6
:100FF000FB80E00EF11E86E090E00E94A014F70155
:1010000091838083F12CE12CEA81FB81E00FF11FB9
:10101000C080D180CE0CDF1C83E090E00E94A01441
:10102000F6019183808390E080E0EA81FB81E00F0C
:10103000F11F0190F081E02DEE0DFF1D0190F08178
:10104000E02DE80FF91F108201968330910569F7B2
:10105000F2E0EF0EF11C86E0E816F104A9F60E5F4F
:101060001F4F0630110519F6EA81FB810280F381DA
:10107000E02D0280F381E02D81E08183DF91CF912B
:101080001F910F91FF90EF90DF90CF9008955F92A6
:101090006F927F928F929F92AF92BF92CF92DF9288
:1010A000EF92FF920F931F93CF93DF93782E662ECC
:1010B000542E082E000C990B811520E49207D8F5C8
:1010C000880F991F0E94A0144C01C62D062C000CFD
:1010D000DD0BC11580E4D80788F5CC0FDD1F052D89
:1010E000052C000C110B0115E0E21E0750F5000F56
:1010F000111F000F111F6401B12CB7144CF5CE0164
:101100000E94A014F601819391936F017C01A12CA0
:10111000A614E4F4C8010E94A014F70181939193EE
:101120007F01FC0180E085157CF4119211921192EF
:1011300011928F5FF8CF8FEF9FEFC4CFCFEFDFEF2C
:10114000CECF0FEF1FEFD7CFA394E2CFB394D5CF7D
:10115000C401DF91CF911F910F91FF90EF90DF902D
:10116000CF90BF90AF909F908F907F906F905F9047
:1011700008950E94981390E080E008950F931F93C4
:10118000CF938C01C62F0E9446046C2F6460C80167
:101190000E9446046C2F6B7FC8010E94460483ECBA
:1011A00090E00197F1F7CF911F910F9108950F9360
:1011B0001F93CF93DF938C01D62FC42F607F642BB6
:1011C0000E94BE0880E1D89FB00111246C2BC80199
:1011D000DF91CF911F910F910C94BE080F931F9335
:1011E000CF93DF93CDB7DEB728970FB6F894DEBF65
:1011F0000FBECDBF8A0198E0EAE0F1E0DE01119672
:1012000001900D929A95E1F790912C02981710F4A5
:101210008FEF890F90E0880F991F21E030E02C0FAD
:101220003D1F820F931FFC018081680F606840E0C2
:1012300084E292E00E94D708F801448155816081E0
:10124000718184E292E028960FB6F894DEBF0FBE5B
:10125000CDBFDF91CF911F910F910C94190140E008
:1012600061E084E292E00E94D7088BE39FE101975E
:10127000F1F7089541E00E94D70881E090E00895D9
:10128000EF92FF920F931F93CF93DF93EC017B01BB
:10129000198218821B821A821D821C82CB010E9435
:1012A000F7138C01BC016F5F7F4F90E080E00E94DC
:1012B000C5150097B9F0998388831B830A832C8115
:1012C0003D81232B11F4FC0110821D830C83B70197
:1012D00088819981DF91CF911F910F91FF90EF90BD
:1012E0000C94F01388819981009711F00E943C15AD
:1012F000198218821D821C821B821A82DF91CF9173
:101300001F910F91FF90EF9008952F923F924F926F
:101310005F926F927F928F929F92AF92BF92CF9285
:10132000DF92EF92FF920F931F93CF93DF93CDB78E
:10133000DEB76F970FB6F894DEBF0FBECDBF1C01AE
:1013400029013A01EA8AFB8A0C8B1D8B67FD7FC05D
:10135000DC0116966C93D10116968C91169782300B
:101360001CF081E016968C9340923E0150923F0112
:1013700060924001709241010A891B892C893D8944
:10138000009342011093430120934401309345019F
:10139000D10112964D915C91FA0180819181DC011D
:1013A0001C92A0911402B09115022D913C911197BD
:1013B000FC0135832483FA012281338181E0F90124
:1013C000808312968D919C919583848343E063E0A2
:1013D00083E00E9447084C0190933D0180933C01BB
:1013E00043E063E083E00E9447089F878E8784E0A4
:1013F00090E00E94A0146C01D1011296ED91FC9135
:10140000628173810E94E407A0901002B0901102E3
:10141000B401C5010E94A102F501808191810E9461
:10142000DA061C8ED10112966D917C91DB01ED9153
:10143000FC911C8D1383D10116968C91882351F059
:10144000813009F46CC160E070E0CB016EC0FC013A
:10145000168281CF24813581D90113964D915C91FB
:1014600081814F3DB1E05B070CF44DC18F5F8183FB
:10147000D90115962D913C9182812F3DB1E03B071A
:101480000CF447C18F5F828340911002509111028A
:10149000DA0114968D919C912181022E000C330B60
:1014A000281739070CF01182218127FF02C08150D3
:1014B0008183DA0116968D919C912281022E000C77
:1014C000330B281739070CF01282228127FF02C044
:1014D00081508283FB0180819181DC011496ED9122
:1014E000FC910780F085E02D2481222309F4ABCF05
:1014F00014820E942406882309F4A5CFF101868175
:10150000F1E0F81BD1011696FC9316971296ED9117
:10151000FC910190F081E02D4181528163818091A5
:101520003C0190913D010E94AD046415750586054E
:10153000970509F0DAC10E942F096EEC70E0CE0128
:1015400001960E944009AE014F5F5F4F62E080E06C
:101550000E94EE08CE0101960E94DF0769EC70E060
:10156000CE0101960E944009AE014F5F5F4F66E0D9
:1015700081E00E94EE08CE0101960E94DF071C8DDB
:101580001F5F1C8F01E013300CF400E0A0903C01C1
:10159000B0903D01B5018E859F850E94CE00D1019E
:1015A0001696EC9116978E2F880F990B1296ED9147
:1015B000FC91E80FF91FA081B1811196EC91119770
:1015C000EE0FFF0B2E853F85E20FF31F12962C9135
:1015D0001297822F880F990B20813181280F391F94
:1015E00013968C91139744E08402C0011124F901F1
:1015F00020813181F901E80FF91FAC9114E0A102BB
:10160000D0011124A25CBE4F8D919D910D90BC9193
:10161000A02D81589048A048BF4FBB27808391835D
:10162000A283B38380901002909011026E857F8513
:10163000C4010E94A102D4018D919C910E94DA06FE
:1016400064E670E080E090E00E941302002309F459
:10165000E9CEC114D104B9F110E000E0F12CE12C85
:10166000D6011296ED91FC91E00FF11F0190F081EF
:10167000E02DEE0DFF1D80819181009711F00E94F9
:101680003C15B2E0EB0EF11CE6E0EE16F10441F77A
:10169000D6011296ED91FC91E00FF11F80819181AE
:1016A000009711F00E943C150E5F1F4F0630110588
:1016B000A9F6F60182819381009711F00E943C15F2
:1016C000C6010E943C158E859F850E94A307C50117
:1016D0000E94A3076F960FB6F894DEBF0FBECDBF72
:1016E000DF91CF911F910F91FF90EF90DF90CF90FE
:1016F000BF90AF909F908F907F906F905F904F9032
:101700003F902F90089542325E4F0CF0B1CE815041
:10171000AECE22323E4F0CF0B7CE8150B4CE1C8DEF
:101720001F8343E063E083E00E9447087C01BC0123
:1017300080913C0190913D010E94CE0043E063E026
:1017400083E00E9447084C01B12CA12C97012A5F2D
:101750003F4F3F8B2E8BFD86EC8688869986AC8525
:10176000BD856D917D91BD87AC878F81B4E08B9FE6
:10177000C0011124E885F985A191B191F987E88725
:10178000AA0DBB1D2D913C918901080F191F198BC2
:10179000088BFB01EA0DFB1D20813181820F931F15
:1017A000FC0180819181A281B381892B8A2B8B2BB3
:1017B00009F08FC001E09E01295F3F4F45E0B7016E
:1017C000C6010E943505A889B9896D937D938D93D3
:1017D0009C931397EE89FF890C851D85E017F1070F
:1017E00009F0BDCF12E0A10EB11C26E0A216B10493
:1017F00009F0B1CF1F8164E0169FA00111245D871D
:101800004C87F601A081B18120E030E040E050E15A
:10181000288F398F4A8F5B8F1F8E1E8E4E8D5F8D66
:10182000440F551F598B488B540100E0F50141913D
:1018300051915F0128893989420F531FFA01408174
:1018400051812C853D85240F351FF901408151813F
:1018500062817381488759876A877B879A01AB01C8
:10186000688D798D8A8D9B8D621773078407950724
:1018700074F411960C9311977E8D12967C931297A7
:1018800013961C931397288F398F4A8F5B8F0F5FA6
:10189000033061F68E8D9F8D01969F8F8E8F0397FB
:1018A00009F0BCCFCD010E942406C4010E94A30709
:1018B000C7010E94A307D10116968C91B1E0B81B15
:1018C000F101B6830280F381E02D0280F381E02DE7
:1018D00023CE00E010E020E030E1A889B9890D9323
:1018E0001D932D933C93139775CF2A893B894C897F
:1018F0005D896217730784079507B1F40E942F0969
:101900006BEB70E0CE0101960E944009AE014F5F83
:101910005F4F62E080E00E94EE08CE0101960E94D7
:10192000DF0766EB70E01CCE20913C0130913D0159
:101930001C8D64E01602A001112490E080E0B90142
:101940006A5F7F4FF901A191B191A80FB91F0D9066
:10195000BC91A02DA40FB51F8D909D90AD90BC9013
:1019600089288A288B2809F410CE6E177F0759F72B
:1019700002968630910531F702CEBF92CF92DF9268
:10198000EF92FF920F931F93CF93DF9300D000D07D
:1019900000D0CDB7DEB70E942F0965EA70E0CE0116
:1019A00001960E944009AE014F5F5F4F60E080E00A
:1019B0000E94EE08CE0101960E94DF07E09012021D
:1019C000F090130210E000E0D70114968D919C91E5
:1019D000FC01228133810217130738F420E030E83C
:1019E00040E850E0B8010E9445020F5F1F4F0930E8
:1019F000110551F7C7010E94DA0668EE73E080E036
:101A000090E00E9413020E942F0964E970E0CE0169
:101A100001960E944009AE014F5F5F4F60E080E099
:101A20000E94EE08CE0101960E94DF07E0901202AC
:101A3000F0901302D70114968D919C91FC012281A4
:101A400033810217130738F420E030EC40EC50E00B
:101A5000B8010E9445020F5F1F4F0231110551F777
:101A6000C7010E94DA0668EE73E080E090E00E9411
:101A700013020E942F0963E870E0CE0101960E94D4
:101A80004009AE014F5F5F4F60E080E00E94EE08CA
:101A9000CE0101960E94DF07E0901202F09013023F
:101AA000D70114968D919C91FC01228133810217FC
:101AB000130738F420E03FEF4FEF50E0B8010E94E9
:101AC00045020F5F1F4F0B31110551F7C7010E94EF
:101AD000DA0668EE73E080E090E00E9413020E9454
:101AE0002F0962E770E0CE0101960E944009AE0125
:101AF0004F5F5F4F60E080E00E94EE08CE010196EC
:101B00000E94DF07C0901202D090130210E000E0A4
:101B1000D60112968D919C911397081719079CF482
:101B200014968D919C91FC01228133810217130739
:101B300038F42FEF3FEF4FEF50E0B8010E9445021D
:101B40000F5F1F4FE5CFC6010E94DA06E090140236
:101B5000F0901502D701ED91FC9111970780F08567
:101B6000E02D1582118281E0838314821296ED911B
:101B7000FC910780F085E02D158211828383148209
:101B8000BB24B394D701ED91FC9111970780F085A8
:101B9000E02D05811296ED91FC910780F085E02DF6
:101BA0008581811146C00B2510E011950195110921
:101BB00061E070E080E090E00E9413020F3F1007A8
:101BC00009F3D701ED91FC9111970780F085E02D85
:101BD0001582118281E0838314821296ED91FC912B
:101BE0000780F085E02D15821182838314820E9484
:101BF0002F09D6011496ED91FC914481558170E036
:101C000060E0818592850E948B16C6010E94DA06EB
:101C1000C80126960FB6F894DEBF0FBECDBFDF9188
:101C2000CF911F910F91FF90EF90DF90CF90BF90D9
:101C3000089501E010E0BCCF1F920F920FB60F92F3
:101C400011242F933F938F939F93AF93BF938091D2
:101C5000F0019091F101A091F201B091F301309166
:101C6000EF0123E0230F2D3758F50196A11DB11D7B
:101C70002093EF018093F0019093F101A093F20182
:101C8000B093F3018091F4019091F501A091F601D8
:101C9000B091F7010196A11DB11D8093F4019093BD
:101CA000F501A093F601B093F701BF91AF919F9119
:101CB0008F913F912F910F900FBE0F901F9018950D
:101CC00026E8230F0296A11DB11DD2CF1F920F92BD
:101CD0000FB60F9211242F933F934F935F936F93FF
:101CE0007F938F939F93AF93BF93EF93FF938091D5
:101CF000090290910A028093B20080910C029091A7
:101D00000D02A0910E02B0910F020196A11DB11D0E
:101D100080930C0290930D02A0930E02B0930F02D9
:101D200080910C0290910D02A0910E02B0910F02D1
:101D300040910502509106026091070270910802DD
:101D400084179507A607B70710F180910B02811140
:101D50001EC081E080930B0280910C0290910D02D5
:101D6000A0910E02B0910F02841B950BA60BB70B2E
:101D700080930C0290930D02A0930E02B0930F0279
:101D8000E0910302F0910402099510920B02FF9179
:101D9000EF91BF91AF919F918F917F916F915F91E3
:101DA0004F913F912F910F900FBE0F901F9018955C
:101DB0001F920F920FB60F9211242F933F934F93C0
:101DC0005F936F937F938F939F93AF93BF93EF93A3
:101DD000FF938091B900887F803609F44AC0F0F5FE
:101DE000883209F4A7C018F5803109F49BC0B8F413
:101DF000882309F4F9C0883009F494C0FF91EF9169
:101E0000BF91AF919F918F917F916F915F914F9112
:101E10003F912F910F900FBE0F901F901895883112
:101E200009F488C0803251F78093CC0114C080340B
:101E300009F49DC040F48033B9F38833F9F68093F8
:101E4000CC0185ECB0C0803509F485C0883509F433
:101E500096C0883499F60E948F03D0CF883909F450
:101E60008CC038F5883729F050F4883611F0803767
:101E700029F683E08093FE011092A80157C08838AC
:101E800009F47BC0803919F0803809F0B7CF809110
:101E9000A801803208F071C0E091A80181E08E0FA6
:101EA0008093A8018091BB00F0E0E857FE4F80834B
:101EB0003DC0803B39F0E0F4803A09F479C0883ABB
:101EC00009F09CCF84E08093FE011092870110926C
:101ED0008601E091FA01F091FB010995809186015C
:101EE00081110FC081E0809386011092660109C0C4
:101EF000803C09F4A6CF883C09F4A3CF883B09F0C5
:101F00007DCFE091870181E08E0F80938701F0E023
:101F1000EA59FE4F80818093BB00909187018091A8
:101F2000860129C08091A9018093BB0085EC809334
:101F3000BC0064CF9091CB018091CA01981758F5ED
:101F4000E091CB0181E08E0F8093CB01F0E0E6556C
:101F5000FE4F8081E9CFE091CB0181E08E0F80932D
:101F6000CB018091BB00F0E0E655FE4F808390915D
:101F7000CB018091CA019817C8F285E8D8CFE091CB
:101F8000CB0181E08E0F8093CB018091BB00F0E00C
:101F9000E655FE4F80838091FD0181115CCF81E089
:101FA0008093FC0184EA8093BC001092FE0126CF4E
:101FB00085EC8093BC001092FE018091A8018032D4
:101FC00030F4E091A801F0E0E857FE4F10826091F4
:101FD000A80170E0E091F801F091F90188E891E042
:101FE00009951092A8010ACF1092CC0134CFE8E1F4
:101FF000F2E01382128288EE93E0A0E0B0E08483E6
:102000009583A683B78382E291E091838083E4E2A3
:10201000F2E01382128284E391E09183808387E26D
:10202000848380E1818782E0828713860895CF933D
:10203000DF9300D000D000D0CDB7DEB7789484B560
:10204000826084BD84B5816084BD85B5826085BDB4
:1020500085B5816085BD80916E00816080936E0042
:102060001092810080918100826080938100809134
:1020700081008160809381008091800081608093E5
:1020800080008091B10084608093B1008091B000A5
:1020900081608093B00080917A00846080937A00A0
:1020A00080917A00826080937A0080917A008160CA
:1020B00080937A0080917A00806880937A001092F1
:1020C000C10084E090E00E94A0147C01909317026C
:1020D0008093160286E090E00E94A0148C0152E0EA
:1020E000C52EDC01CC9215961C92159711961C9268
:1020F0001197DD24D3941396DC92139714961C92B7
:1021000060E082E00E949D016FE0962EF8019282CD
:10211000D7010D931C9386E090E00E94A0148C01DF
:1021200083E0F801808315821182D382148260E0FB
:102130000E949D01D80112969C92F701138302839D
:1021400084E090E00E94A0145C01909315028093BB
:10215000140289E090E00E94A0148C018EE0D80166
:102160008C9311969C92119786E012968C9362E064
:102170008EE00E949D0162E0F80181810E949D0134
:1021800086E090E00E94A0147C01D80112968C9108
:10219000F701808315821182D382148260E00E944D
:1021A0009D01D70112969C92F801F086E782D50135
:1021B0000D931C9389E090E00E94A0148C0180E1B3
:1021C000F801808381E1818387E0828362E080E19E
:1021D0000E949D0162E0D80111968C910E949D01A0
:1021E00086E090E00E94A0147C01F8018281D70172
:1021F0008C9315961C92159711961C921197139615
:10220000DC92139714961C9260E00E949D01F701E6
:102210009282D8011896FC92EE921797F5011383DB
:10222000028386E090E00E94A0147C0188E090E0A8
:10223000D70111969C938E937BE1A72EB12C139618
:10224000BC92AE92129786E190E00E94A0148C019D
:10225000FC01118210861786108A118A128AD6868E
:10226000D3861486C586D08281E590E095838483E9
:102270000E94A014F80192878187009709F407C291
:1022800021E5DC011D922A95E9F7B382A28288E05C
:1022900090E0D80117969C938E93169711968C9187
:1022A000882341F061E088E00E949D0160E088E0C1
:1022B0000E946F01EFE1F1E0E491F0E0EE0FFF1F0B
:1022C000E35FFE4F85919491F801948B838BE1E05D
:1022D000F1E0E491D8015596EC935597F7011583F9
:1022E000048316968D919C9197FD09C061E00E9430
:1022F0009D0160E0D80116968C910E946F01DD244B
:10230000D394F801D182D7011496ED91FC914481C8
:10231000558170E060E0818592850E948B16C7012F
:102320000E94DA06F0921302E09212028AE090E034
:102330000E94A0148C01FC01F182E08283E090E015
:1023400095838483978386839187808743E063E0C6
:102350000E944708D80113969C938E93129710936E
:1023600011020093100210920202109201021092C8
:1023700000021092FF011092FE01D092FD01109216
:10238000FC0161E082E10E946F0161E083E10E9453
:102390006F018091B9008E7F8093B9008091B90060
:1023A0008D7F8093B90088E48093B80085E48093A2
:1023B000BC0087E191E09093FB018093FA0188E1F2
:1023C00091E09093F9018093F80110922902809195
:1023D0002E02823018F098E09093290280932C020C
:1023E00062E370E080E090E00E94130260912F02AF
:1023F00084E292E00E94460468EE73E080E090E0A0
:102400000E94130260E384E292E00E94BE080BE4A3
:1024100016E4C8010197F1F760E384E292E00E94BC
:10242000BE08C8010197F1F760E384E292E00E94E0
:10243000BE0883E592E00197F1F760E284E292E062
:102440000E94BE0860912902606240E084E292E04E
:102450000E94D70884E080932A0240E06CE084E286
:1024600092E00E94D7080E942F0982E080932B02FD
:1024700040E066E084E292E00E94D70840E062E03B
:1024800084E292E00E94D7088BE39FE10197F1F785
:1024900088E080932F0260E084E292E00E9446048C
:1024A00069E371E0CE0101960E944009AE014F5FE1
:1024B0005F4F60E080E00E94EE08CE0101960E942E
:1024C000DF076BE271E0CE0101960E944009AE0188
:1024D0004F5F5F4F61E080E00E94EE08CE01019601
:1024E0000E94DF0785E090E0A0E0B0E08093050265
:1024F00090930602A0930702B093080286EA96E042
:102500009093040280930302809170008E7F8093E9
:1025100070008091B0008C7F8093B0008091B100FA
:10252000877F8093B1008091B6008F7D8093B60045
:10253000809170008D7F809370008091B1008460E5
:102540008093B1008091B1008C7F8093B10086E0D0
:1025500090E090930A028093090210920C0210926C
:102560000D0210920E0210920F0210920B02809137
:10257000090290910A028093B200809170008160FC
:102580008093700061E08DE00E949D0185E10E94D2
:10259000D901BC01990F880B990B61157105810553
:1025A000910511F00E94E71396E1292E91E0392E52
:1025B0002CE1422E21E0522E7724739430E0A32E9A
:1025C00030E0B32E0E94981382E090E00E94A014A5
:1025D0008C01FC01318220820E94B9084C01C801A3
:1025E0000E943C1587E090E00E94A0146C01DC0181
:1025F0004D925C9284E090E00E94A0147C01F60170
:102600009383828386E090E00E94A014FC011082F4
:1026100015821482718272821382D7018D939C93EA
:1026200086E090E00E94A0148C01FC0110821582CB
:102630001482718272821382D70113969C938E93B7
:10264000129784E090E00E94A0147C01B8010E94DF
:10265000E407F601F582E4820190F081E02D01901B
:10266000F081E02DE12CF12C0FE710E020E03FE7B6
:1026700040E050E0B401C6010995C6010E943C1536
:10268000A114B10409F49ECF0E9400009BCF1582D3
:10269000148213821282FBCD8F929F92AF92BF92CF
:1026A000CF92DF92EF92FF92CF93DF93EC0168819C
:1026B00079818A819B81611571058105910521F4DC
:1026C00064E279ED8BE597E02DE133EF41E050E0F6
:1026D0000E94001449015A019B01AC01A7EAB1E430
:1026E0000E941F146B017C01ACEEB4EFA5019401B4
:1026F0000E942D14C60ED71EE81EF91EF7FE06C056
:1027000081E0C81AD108E10880E8F80AC882D982B5
:10271000EA82FB82C701B6019F77DF91CF91FF90DC
:10272000EF90DF90CF90BF90AF909F908F900895E3
:102730008F929F92AF92BF92CF92DF92EF92FF92D1
:10274000609100017091010180910201909103015B
:10275000611571058105910521F464E279ED8BE540
:1027600097E02DE133EF41E050E00E940014490171
:102770005A019B01AC01A7EAB1E40E941F146B014E
:102780007C01ACEEB4EFA50194010E942D14C60E9D
:10279000D71EE81EF91EF7FE06C081E0C81AD10850
:1027A000E10880E8F80AC0920001D0920101E092AD
:1027B0000201F0920301C701B6019F77FF90EF90ED
:1027C000DF90CF90BF90AF909F908F9008956093CF
:1027D0000001709301018093020190930301089519
:1027E000FB01DC0105900D920020E1F70895FC014A
:1027F00005900020E9F7809590958E0F9F1F089512
:10280000052E97FB1EF400940E94171457FD07D065
:102810000E94691407FC03D04EF40C9417145095D1
:102820004095309521953F4F4F4F5F4F08959095BC
:102830008095709561957F4F8F4F9F4F08950E94AF
:102840008B14A59F900DB49F900DA49F800D911D9A
:1028500011240895B7FF0C941F140E941F14821BAB
:10286000930B08952F923F924F925F926F927F92B7
:102870008F929F92AF92BF92CF92DF92EF92FF9290
:102880000F931F93CF93DF93CDB7DEB7CA1BDB0B3C
:102890000FB6F894DEBF0FBECDBF09942A883988E1
:1028A00048885F846E847D848C849B84AA84B984E8
:1028B000C884DF80EE80FD800C811B81AA81B981F4
:1028C000CE0FD11D0FB6F894DEBF0FBECDBFED0108
:1028D0000895A1E21A2EAA1BBB1BFD010DC0AA1F61
:1028E000BB1FEE1FFF1FA217B307E407F50720F079
:1028F000A21BB30BE40BF50B661F771F881F991FF4
:102900001A9469F760957095809590959B01AC013C
:10291000BD01CF010895A29FB001B39FC001A39F45
:10292000700D811D1124911DB29F700D811D112408
:10293000911D0895EE0FFF1F0590F491E02D09946D
:102940000F931F93CF93DF938230910510F482E0B1
:1029500090E0E0913202F091330230E020E0B0E00C
:10296000A0E0309799F42115310509F44AC0281BDD
:10297000390B24303105D8F58A819B8161157105A9
:1029800089F1FB0193838283FE0111C04081518153
:102990000281138148175907E0F04817590799F445
:1029A000109761F012960C93129713961C9332961F
:1029B000CF01DF91CF911F910F91089500933202C3
:1029C00010933302F4CF2115310551F0421753070C
:1029D00038F0A901DB019A01BD01DF01F801C1CF87
:1029E000EF01F9CF9093330280933202CDCFFE01F5
:1029F000E20FF31F81939193225031093983288389
:102A0000D7CF2091300230913102232B41F4209115
:102A1000060130910701309331022093300220915A
:102A20000401309105012115310541F42DB73EB760
:102A30004091080150910901241B350BE0913002AF
:102A4000F0913102E217F307A0F42E1B3F0B281779
:102A5000390778F0AC014E5F5F4F2417350748F017
:102A60004E0F5F1F50933102409330028193919338
:102A70009FCFF0E0E0E09CCFCF93DF930097E9F0A9
:102A8000FC01329713821282A0913202B09133027C
:102A9000ED0130E020E01097A1F420813181820F18
:102AA000931F20913002309131022817390709F025
:102AB00061C0F0933102E0933002DF91CF9108952D
:102AC000EA01CE17DF07E8F54A815B819E014115D7
:102AD0005105B1F7E901FB83EA8349915991C40F8C
:102AE000D51FEC17FD0761F4808191810296840F58
:102AF000951FE90199838883828193819B838A83CF
:102B0000F0E0E0E012968D919C9113970097B9F553
:102B10002D913C911197CD010296820F931F209128
:102B20003002309131022817390739F6309751F5C4
:102B30001092330210923202B0933102A09330020D
:102B4000BCCFD383C28340815181840F951FC817A6
:102B5000D90761F44E5F5F4F88819981480F591FF3
:102B6000518340838A819B81938382832115310520
:102B700009F0B0CFF0933302E09332029ECFFD0113
:102B8000DC01C0CF13821282D7CFB0E0A0E0EBEC23
:102B9000F5E10C9434148C01009751F4CB010E94A0
:102BA000A0148C01C801CDB7DEB7E0E10C9450143D
:102BB000FC01E60FF71F9C0122503109E217F307D1
:102BC00008F49DC0D901CD91DC911197C617D707A4
:102BD00098F0C530D10530F3CE01049786179707DA
:102BE00008F3C61BD70B2297C193D1936D937C93A7
:102BF000CF010E943C15D6CF5B01AC1ABD0A4C0137
:102C00008C0E9D1EA0913202B0913302512C412CAA
:102C1000F12CE12C109731F5809130029091310226
:102C20008815990509F05CC04616570608F058C08B
:102C30008091040190910501009741F48DB79EB7F2
:102C40004091080150910901841B950BE817F90781
:102C500008F055C0F0933102E0933002F90171831E
:102C60006083A0CF8D919C91119712966C901297D2
:102C700013967C901397A815B90559F56C0142E09D
:102C8000C40ED11CCA14DB0420F1AC014A195B0943
:102C9000DA011296159780F0628273825183408325
:102CA000D9016D937C93E114F10471F0D70113966F
:102CB000FC93EE93129776CF22968C0F9D1FF9010D
:102CC00091838083F301EFCFF0933302E0933202DC
:102CD00069CF4816590608F42C017D01D3019ACF1B
:102CE000CB010E94A0147C01009749F0AE01B8010D
:102CF0000E948216C8010E943C15870153CF10E044
:102D000000E050CFFB01DC0102C001900D92415068
:102D10005040D8F70895DC0101C06D9341505040F8
:082D2000E0F70895F894FFCFDD
:102D28000100000000003402800000004000140090
:102D3800540000000000B9080000000085090000E8
:102D480000001704EA03AA04C003E303D003C10385
:0C2D5800000000003A091901AA048E03D3
:107800000C94343C0C94513C0C94513C0C94513CE1
:107810000C94513C0C94513C0C94513C0C94513CB4
:107820000C94513C0C94513C0C94513C0C94513CA4
:107830000C94513C0C94513C0C94513C0C94513C94
:107840000C94513C0C94513C0C94513C0C94513C84
:107850000C94513C0C94513C0C94513C0C94513C74
:107860000C94513C0C94513C11241FBECFEFD8E036
:10787000DEBFCDBF11E0A0E0B1E0ECE9FFE702C060
:1078800005900D92A230B107D9F712E0A2E0B1E065
:1078900001C01D92AD30B107E1F70E942D3D0C945F
:1078A000CC3F0C94003C982F959595959595959582
:1078B000905D8F708A307CF0282F295A8091C0000B
:1078C00085FFFCCF9093C6008091C00085FFFCCF60
:1078D0002093C6000895282F205DF0CF982F809127
:1078E000C00085FFFCCF9093C6000895EF92FF92F1
:1078F0000F931F93EE24FF2487018091C00087FD22
:1079000017C00894E11CF11C011D111D81E4E8164B
:1079100082E4F8068FE0080780E0180770F3E09132
:107920000401F091050109958091C00087FFE9CF1E
:107930008091C6001F910F91FF90EF9008950E94D3
:10794000763C982F8091C00085FFFCCF9093C600B5
:1079500091362CF490330CF09053892F089597555D
:10796000892F08951F930E949F3C182F0E949F3CCF
:107970001295107F810F1F9108951F93182F882350
:1079800021F00E94763C1150E1F71F9108951F935A
:10799000182F0E94763C803249F0809103018F5F5E
:1079A000809303018530C1F01F9108958091C0003C
:1079B00085FFFCCF84E18093C6008091C00085FFE5
:1079C000FCCF1093C6008091C00085FFFCCF80E102
:1079D0008093C6001F910895E0910401F091050184
:1079E00009951F9108950E94763C803241F0809164
:1079F00003018F5F80930301853081F008958091AA
:107A0000C00085FFFCCF84E18093C6008091C00058
:107A100085FFFCCF80E18093C6000895E0910401CA
:107A2000F09105010995089540E951E08823A1F0FE
:107A30002D9A28EE33E0FA013197F1F721503040CA
:107A4000D1F72D9828EE33E0FA013197F1F7215064
:107A50003040D1F7815061F708953F924F925F9285
:107A60006F927F928F929F92AF92BF92CF92DF924E
:107A7000EF92FF920F931F93CF93DF93000080E16B
:107A80008093C4001092C50088E18093C10086E015
:107A90008093C2005098589A259A81E00E94143D24
:107AA00024E1F22E9EE1E92E85E9D82E0FE0C02ECA
:107AB00010E1B12EAA24A394B1E49B2EA6E58A2E50
:107AC000F2E57F2EE0E26E2E79E4572E63E5462E36
:107AD00050E5352E0E94763C8033B1F18133B9F107
:107AE000803409F46FC0813409F476C0823409F41B
:107AF00085C0853409F488C0803531F1823521F1A3
:107B0000813511F1853509F485C0863509F48DC0BC
:107B1000843609F496C0843709F403C1853709F423
:107B200072C1863709F466C0809103018F5F80932C
:107B30000301853079F6E0910401F0910501099582
:107B40000E94763C803351F60E94F33CC3CF0E94E2
:107B5000763C803249F78091C00085FFFCCFF092DF
:107B6000C6008091C00085FFFCCF9092C600809136
:107B7000C00085FFFCCF8092C6008091C00085FFC9
:107B8000FCCF7092C6008091C00085FFFCCF609250
:107B9000C6008091C00085FFFCCF5092C600809146
:107BA000C00085FFFCCF4092C6008091C00085FFD9
:107BB000FCCF3092C6008091C00085FFFCCFB09210
:107BC000C60088CF0E94763C863808F4BDCF0E945C
:107BD000763C0E94F33C7ECF0E94763C803809F4CC
:107BE0009CC0813809F40BC1823809F43CC1883942
:107BF00009F48FC080E00E94C73C6CCF84E10E94F2
:107C0000BD3C0E94F33C66CF85E00E94BD3C0E94D3
:107C1000F33C60CF0E94763C809306010E94763C44
:107C2000809307010E94F33C55CF0E94763C80333D
:107C300009F41DC183E00E94BD3C80E00E94C73C66
:107C400049CF0E94763C809309020E94763C809343
:107C5000080280910C028E7F80930C020E94763C79
:107C6000853409F415C18091080290910902892B8D
:107C700089F000E010E00E94763CF801E85FFE4FDA
:107C800080830F5F1F4F80910802909109020817AF
:107C9000190788F30E94763C803209F045CF809125
:107CA0000C0280FF01C16091060170910701660F0F
:107CB000771F7093070160930601A0910802B091AD
:107CC00009021097C9F0E8E0F1E09B01AD014E0F09
:107CD0005F1FF999FECF32BD21BD819180BDFA9A17
:107CE000F99A2F5F3F4FE417F50799F76A0F7B1F4B
:107CF00070930701609306018091C00085FFFCCF5F
:107D0000F092C6008091C00085FFFCCFB092C60003
:107D1000E1CE83E00E94C73CDDCE82E00E94C73CFA
:107D2000D9CE0E94763C809309020E94763C8093D3
:107D300008028091060190910701880F991F909386
:107D40000701809306010E94763C853409F4A6C0A1
:107D500080910C028E7F80930C020E94763C8032D0
:107D600009F0B8CE8091C00085FFFCCFF092C6002C
:107D7000609108027091090261157105B9F140E046
:107D800050E080910C02A82FA170B82FB27011C0E2
:107D9000BB2309F45CC0E0910601F0910701319624
:107DA000F0930701E09306014F5F5F4F46175707B7
:107DB000E8F4AA2369F3F999FECF209106013091E6
:107DC000070132BD21BDF89A90B58091C00085FFB2
:107DD000FCCF9093C6002F5F3F4F30930701209355
:107DE00006014F5F5F4F4617570718F38091C00099
:107DF00085FDE5CE8091C00085FFF8CFE0CE81E023
:107E00000E94C73C67CE0E94763C803209F08CCE3F
:107E10008091C00085FFFCCFF092C6008091C00029
:107E200085FFFCCFE092C6008091C00085FFFCCFAB
:107E3000D092C6008091C00085FFFCCFC092C600E2
:107E40008091C00085FFFCCFB092C60043CEE09188
:107E50000601F091070194918091C00085FFFCCF4D
:107E60009093C6009CCF80E10E94C73C33CE0E9415
:107E7000763C0E94763C182F0E94763C112309F430
:107E800083C0113009F484C08FE00E94C73C22CE29
:107E900080910C02816080930C02E5CE80910C02EF
:107EA000816080930C0259CF809107018823880F4D
:107EB000880B8A2180930B02809106019091070123
:107EC000880F991F90930701809306018091080203
:107ED00080FF09C080910802909109020196909359
:107EE000090280930802F894F999FECF1127E091D6
:107EF0000601F0910701C8E0D1E08091080290915D
:107F00000902103091F40091570001700130D9F34B
:107F100003E000935700E89500915700017001308D
:107F2000D9F301E100935700E89509901990009169
:107F3000570001700130D9F301E000935700E89534
:107F40001395103498F011270091570001700130FB
:107F5000D9F305E000935700E895009157000170B0
:107F60000130D9F301E100935700E895329602976A
:107F700009F0C7CF103011F00296E5CF112480919F
:107F8000C00085FFB9CEBCCE8EE10E94C73CA2CD19
:0C7F900085E90E94C73C9ECDF894FFCF0D
:027F9C00800063
:040000030000780081
:00000001FF
